S01F0000556C747261736F6E69635F696D706C656D746174696F6E2E737265636F
S11300000C942A000C9447000C9447000C9447006D
S11300100C9447000C9447000C9447000C94470040
S11300200C9447000C9453020C9447000C94470022
S11300300C9447000C9447000C9447000C94470020
S11300400C9447000C9447000C9447000C94470010
S11300500C94470011241FBECFE5D8E0DEBFCDBF0E
S113006010E0A0E6B0E0E8E9F5E002C005900D92EA
S1130070AE36B107D9F720E0AEE6B0E001C01D927C
S1130080AF36B207E1F70E94B6010C94CA020C9491
S113009000008EEF8ABB8EE087BB8FE784BB81EBC9
S11300A081BB08958630A1F018F4853031F00895AD
S11300B08730C9F0883011F108952BB381E090E0C6
S11300C002C0880F991F6A95E2F7822B8BBB0895B3
S11300D028B381E090E002C0880F991F6A95E2F787
S11300E0822B88BB089525B381E090E002C0880F7D
S11300F0991F6A95E2F7822B85BB089522B381E0AC
S113010090E002C0880F991F6A95E2F7822B82BBA8
S113011008958630A9F018F4853031F008958730B9
S1130120D9F0883029F108952BB381E090E002C022
S1130130880F991F6A95E2F7809582238BBB0895F7
S113014028B381E090E002C0880F991F6A95E2F716
S11301508095822388BB089525B381E090E002C096
S1130160880F991F6A95E2F78095822385BB0895CD
S113017022B381E090E002C0880F991F6A95E2F7EC
S11301808095822382BB0895863059F018F4853017
S113019031F00895873039F0883039F008956BBB19
S11301A0089568BB089565BB089562BB0895CF9315
S11301B0C82F61E086E00E94520062E086E00E945F
S11301C089006C2F607F85E00E94C40063E086E0B4
S11301D00E9452008FE99FE00197F1F700C00000F0
S11301E063E086E00E9489008FE99FE00197F1F7C0
S11301F000C000006C2F6295607F85E00E94C400FF
S113020063E086E00E9452008FE99FE00197F1F7D6
S113021000C0000063E086E00E9489008FE99FE04F
S11302200197F1F700C00000CF910895CF93C82F34
S113023061E086E00E94890062E086E00E94890015
S11302406C2F607F85E00E94C40063E086E00E941A
S113025052008FE99FE00197F1F700C0000063E0CE
S113026086E00E9489008FE99FE00197F1F700C0C2
S113027000006C2F6295607F85E00E94C40063E0FB
S113028086E00E9452008FE99FE00197F1F700C0D9
S1130290000063E086E00E9489008FE99FE00197F7
S11302A0F1F700C00000CF9108952FEF89EF90E09F
S11302B0215080409040E1F700C0000083E30E9499
S11302C0160182E30E94160188E20E9416018CE066
S11302D00E94160186E00E94160181E00E94160128
S11302E008950F931F93CF938C01C0E003C00E9425
S11302F0D700CF5FF801EC0FF11D80818111F7CF9A
S1130300CF911F910F910895CF93DF93CDB7DEB7AF
S11303102A970FB6F894DEBF0FBECDBF4AE0BE01E8
S11303206F5F7F4F0E949502CE0101960E9471017A
S11303302A960FB6F894DEBF0FBECDBFDF91CF91E2
S11303400895882319F0813021F006C080E8860FD3
S113035004C080EC860F01C080E00E9416018FE982
S11303609FE00197F1F700C0000008950E94490042
S11303700E9455010E94DD0180E690E00E94710117
S113038061E081E00E94A1018BE690E00E9471018E
S11303900E940C026B017C0160E081E00E94A101DB
S11303A0C6010E9484012FEF83EC99E02150804024
S11303B09040E1F700C00000E3CF8FB58F7E8FBD82
S11303C08FB5877F8FBD8FB58D7F8FBD8FB58E7FA6
S11303D08FBD8FB58F778FBD8FB58F7B8FBD8FB559
S11303E08F7D8FBD8FB58F7E8FBD8FB5877F8FBD7E
S11303F08FB58B7F8FBD8EB580648EBD08958EB50D
S11304008B7F8EBD8EB582608EBD8EB58E7F8EBD88
S113041008951DBC1CBC0895789489B7846089BF75
S11304200E94FF018EB580648EBD88B7806288BF4C
S11304300E94090210926E0060E087E00E94520060
S11304406AE66A95F1F700C060E087E00E948900DF
S113045008B605FEFDCF88B7806288BF8EB58F7B56
S11304608EBD08B605FEFDCF46B557B520916E008A
S113047030E0AFEFBFEF0E948602640F751F811D4D
S1130480911D23E730E040E050E00E9464028FEFCA
S113049090E762E0815090406040E1F700C00000C6
S11304A0CA01B90108951F920F920FB60F92112439
S11304B08F9380916E008F5F80936E008F910F9069
S11304C00FBE0F901F901895A1E21A2EAA1BBB1BFA
S11304D0FD010DC0AA1FBB1FEE1FFF1FA217B3070C
S11304E0E407F50720F0A21BB30BE40BF50B661F22
S11304F0771F881F991F1A9469F7609570958095E6
S113050090959B01AC01BD01CF010895A29FB0015C
S1130510B39FC001A39F700D811D1124911DB29F33
S1130520700D811D1124911D0895BB274A3031F4AB
S1130530992322F4BDE2909581959F4F0C94A102DA
S1130540BB27FB015527AA27880F991FAA1FA417A9
S113055010F0A41B83955051B9F7A05DAA3308F09D
S1130560A95DA193009779F7B111B1931192CB01D1
S11305700C94BA02DC01FC01672F71917723E1F737
S1130580329704C07C916D9370836291AE17BF075C
S10B0590C8F30895F894FFCFAD
S111059844697374616E6365203D00636D00F9
S9030000FC
